{
  "_format": "hh-sol-artifact-1",
  "contractName": "ErrorTriageExercise",
  "sourceName": "contracts/09_ErrorTriageExercise.sol",
  "abi": [
    {
      "inputs": [
        {
          "internalType": "uint256",
          "name": "_num",
          "type": "uint256"
        }
      ],
      "name": "addToArr",
      "outputs": [],
      "stateMutability": "nonpayable",
      "type": "function"
    },
    {
      "inputs": [
        {
          "internalType": "uint256",
          "name": "_base",
          "type": "uint256"
        },
        {
          "internalType": "int256",
          "name": "_modifier",
          "type": "int256"
        }
      ],
      "name": "applyModifier",
      "outputs": [
        {
          "internalType": "uint256",
          "name": "",
          "type": "uint256"
        }
      ],
      "stateMutability": "pure",
      "type": "function"
    },
    {
      "inputs": [
        {
          "internalType": "uint256",
          "name": "_a",
          "type": "uint256"
        },
        {
          "internalType": "uint256",
          "name": "_b",
          "type": "uint256"
        },
        {
          "internalType": "uint256",
          "name": "_c",
          "type": "uint256"
        },
        {
          "internalType": "uint256",
          "name": "_d",
          "type": "uint256"
        }
      ],
      "name": "diffWithNeighbor",
      "outputs": [
        {
          "internalType": "uint256[]",
          "name": "",
          "type": "uint256[]"
        }
      ],
      "stateMutability": "pure",
      "type": "function"
    },
    {
      "inputs": [],
      "name": "getArr",
      "outputs": [
        {
          "internalType": "uint256[]",
          "name": "",
          "type": "uint256[]"
        }
      ],
      "stateMutability": "view",
      "type": "function"
    },
    {
      "inputs": [],
      "name": "popWithReturn",
      "outputs": [
        {
          "internalType": "uint256",
          "name": "",
          "type": "uint256"
        }
      ],
      "stateMutability": "nonpayable",
      "type": "function"
    },
    {
      "inputs": [],
      "name": "resetArr",
      "outputs": [],
      "stateMutability": "nonpayable",
      "type": "function"
    }
  ],
  "bytecode": "0x608060405234801561001057600080fd5b506104be806100206000396000f3fe608060405234801561001057600080fd5b50600436106100725760003560e01c8063e1819ff911610050578063e1819ff9146100bc578063f74e51ea146100fc578063fb8cbced1461010f57600080fd5b80631abe2ac214610077578063294323141461009257806364529db5146100b2575b600080fd5b61007f610117565b6040519081526020015b60405180910390f35b6100a56100a0366004610337565b610176565b6040516100899190610369565b6100ba610261565b005b6100ba6100ca3660046103ad565b600080546001810182559080527f290decd9548b62a8d60345a988386fc84ba6bc95484008f6362f93160ef3e5630155565b61007f61010a3660046103c6565b61026e565b6100a56102a5565b600080548190819061012b906001906103fe565b8154811061013b5761013b610411565b90600052602060002001549050600080548061015957610159610427565b600190038181906000526020600020016000905590558091505090565b60408051600380825260808201909252606091600091906020820184803683370190505090508486116101b2576101ad86866103fe565b6101bc565b6101bc85876103fe565b816000815181106101cf576101cf610411565b6020026020010181815250508385116101f1576101ec85856103fe565b6101fb565b6101fb84866103fe565b8160018151811061020e5761020e610411565b6020026020010181815250508284116102305761022b84846103fe565b61023a565b61023a83856103fe565b8160028151811061024d5761024d610411565b602090810291909101015295945050505050565b61026c6000806102fd565b565b60008082131561028957610282828461043d565b905061029f565b61029282610450565b61029c90846103fe565b90505b92915050565b606060008054806020026020016040519081016040528092919081815260200182805480156102f357602002820191906000526020600020905b8154815260200190600101908083116102df575b5050505050905090565b508054600082559060005260206000209081019061031b919061031e565b50565b5b80821115610333576000815560010161031f565b5090565b6000806000806080858703121561034d57600080fd5b5050823594602084013594506040840135936060013592509050565b6020808252825182820181905260009190848201906040850190845b818110156103a157835183529284019291840191600101610385565b50909695505050505050565b6000602082840312156103bf57600080fd5b5035919050565b600080604083850312156103d957600080fd5b50508035926020909101359150565b634e487b7160e01b600052601160045260246000fd5b8181038181111561029f5761029f6103e8565b634e487b7160e01b600052603260045260246000fd5b634e487b7160e01b600052603160045260246000fd5b8082018082111561029f5761029f6103e8565b60007f80000000000000000000000000000000000000000000000000000000000000008203610481576104816103e8565b506000039056fea2646970667358221220e76c6523954aefd4308e7b1b8198f1e46a0ce446c0648367e9391ea8d1082f1c64736f6c63430008140033",
  "linkReferences": {},
  "deployedLinkReferences": {}
}