{
  "_format": "hh-sol-artifact-1",
  "contractName": "HaikuNFT",
  "sourceName": "contracts/13_HaikuNFT.sol",
  "abi": [
    {
      "inputs": [
        {
          "internalType": "string",
          "name": "_name",
          "type": "string"
        },
        {
          "internalType": "string",
          "name": "_symbol",
          "type": "string"
        }
      ],
      "stateMutability": "nonpayable",
      "type": "constructor"
    },
    {
      "inputs": [
        {
          "internalType": "address",
          "name": "sender",
          "type": "address"
        },
        {
          "internalType": "uint256",
          "name": "tokenId",
          "type": "uint256"
        },
        {
          "internalType": "address",
          "name": "owner",
          "type": "address"
        }
      ],
      "name": "ERC721IncorrectOwner",
      "type": "error"
    },
    {
      "inputs": [
        {
          "internalType": "address",
          "name": "operator",
          "type": "address"
        },
        {
          "internalType": "uint256",
          "name": "tokenId",
          "type": "uint256"
        }
      ],
      "name": "ERC721InsufficientApproval",
      "type": "error"
    },
    {
      "inputs": [
        {
          "internalType": "address",
          "name": "approver",
          "type": "address"
        }
      ],
      "name": "ERC721InvalidApprover",
      "type": "error"
    },
    {
      "inputs": [
        {
          "internalType": "address",
          "name": "operator",
          "type": "address"
        }
      ],
      "name": "ERC721InvalidOperator",
      "type": "error"
    },
    {
      "inputs": [
        {
          "internalType": "address",
          "name": "owner",
          "type": "address"
        }
      ],
      "name": "ERC721InvalidOwner",
      "type": "error"
    },
    {
      "inputs": [
        {
          "internalType": "address",
          "name": "receiver",
          "type": "address"
        }
      ],
      "name": "ERC721InvalidReceiver",
      "type": "error"
    },
    {
      "inputs": [
        {
          "internalType": "address",
          "name": "sender",
          "type": "address"
        }
      ],
      "name": "ERC721InvalidSender",
      "type": "error"
    },
    {
      "inputs": [
        {
          "internalType": "uint256",
          "name": "tokenId",
          "type": "uint256"
        }
      ],
      "name": "ERC721NonexistentToken",
      "type": "error"
    },
    {
      "inputs": [],
      "name": "HaikuNotUnique",
      "type": "error"
    },
    {
      "inputs": [],
      "name": "NoHaikusShared",
      "type": "error"
    },
    {
      "inputs": [],
      "name": "NotHaikuOwner",
      "type": "error"
    },
    {
      "anonymous": false,
      "inputs": [
        {
          "indexed": true,
          "internalType": "address",
          "name": "owner",
          "type": "address"
        },
        {
          "indexed": true,
          "internalType": "address",
          "name": "approved",
          "type": "address"
        },
        {
          "indexed": true,
          "internalType": "uint256",
          "name": "tokenId",
          "type": "uint256"
        }
      ],
      "name": "Approval",
      "type": "event"
    },
    {
      "anonymous": false,
      "inputs": [
        {
          "indexed": true,
          "internalType": "address",
          "name": "owner",
          "type": "address"
        },
        {
          "indexed": true,
          "internalType": "address",
          "name": "operator",
          "type": "address"
        },
        {
          "indexed": false,
          "internalType": "bool",
          "name": "approved",
          "type": "bool"
        }
      ],
      "name": "ApprovalForAll",
      "type": "event"
    },
    {
      "anonymous": false,
      "inputs": [
        {
          "indexed": true,
          "internalType": "address",
          "name": "from",
          "type": "address"
        },
        {
          "indexed": true,
          "internalType": "address",
          "name": "to",
          "type": "address"
        },
        {
          "indexed": true,
          "internalType": "uint256",
          "name": "tokenId",
          "type": "uint256"
        }
      ],
      "name": "Transfer",
      "type": "event"
    },
    {
      "inputs": [
        {
          "internalType": "address",
          "name": "to",
          "type": "address"
        },
        {
          "internalType": "uint256",
          "name": "tokenId",
          "type": "uint256"
        }
      ],
      "name": "approve",
      "outputs": [],
      "stateMutability": "nonpayable",
      "type": "function"
    },
    {
      "inputs": [
        {
          "internalType": "address",
          "name": "owner",
          "type": "address"
        }
      ],
      "name": "balanceOf",
      "outputs": [
        {
          "internalType": "uint256",
          "name": "",
          "type": "uint256"
        }
      ],
      "stateMutability": "view",
      "type": "function"
    },
    {
      "inputs": [],
      "name": "counter",
      "outputs": [
        {
          "internalType": "uint256",
          "name": "",
          "type": "uint256"
        }
      ],
      "stateMutability": "view",
      "type": "function"
    },
    {
      "inputs": [
        {
          "internalType": "uint256",
          "name": "tokenId",
          "type": "uint256"
        }
      ],
      "name": "getApproved",
      "outputs": [
        {
          "internalType": "address",
          "name": "",
          "type": "address"
        }
      ],
      "stateMutability": "view",
      "type": "function"
    },
    {
      "inputs": [],
      "name": "getMySharedHaikus",
      "outputs": [
        {
          "components": [
            {
              "internalType": "address",
              "name": "author",
              "type": "address"
            },
            {
              "internalType": "string",
              "name": "line1",
              "type": "string"
            },
            {
              "internalType": "string",
              "name": "line2",
              "type": "string"
            },
            {
              "internalType": "string",
              "name": "line3",
              "type": "string"
            }
          ],
          "internalType": "struct HaikuNFT.Haiku[]",
          "name": "",
          "type": "tuple[]"
        }
      ],
      "stateMutability": "view",
      "type": "function"
    },
    {
      "inputs": [
        {
          "internalType": "bytes32",
          "name": "",
          "type": "bytes32"
        }
      ],
      "name": "haikuLinesUsed",
      "outputs": [
        {
          "internalType": "bool",
          "name": "",
          "type": "bool"
        }
      ],
      "stateMutability": "view",
      "type": "function"
    },
    {
      "inputs": [
        {
          "internalType": "uint256",
          "name": "",
          "type": "uint256"
        }
      ],
      "name": "haikus",
      "outputs": [
        {
          "internalType": "address",
          "name": "author",
          "type": "address"
        },
        {
          "internalType": "string",
          "name": "line1",
          "type": "string"
        },
        {
          "internalType": "string",
          "name": "line2",
          "type": "string"
        },
        {
          "internalType": "string",
          "name": "line3",
          "type": "string"
        }
      ],
      "stateMutability": "view",
      "type": "function"
    },
    {
      "inputs": [
        {
          "internalType": "address",
          "name": "owner",
          "type": "address"
        },
        {
          "internalType": "address",
          "name": "operator",
          "type": "address"
        }
      ],
      "name": "isApprovedForAll",
      "outputs": [
        {
          "internalType": "bool",
          "name": "",
          "type": "bool"
        }
      ],
      "stateMutability": "view",
      "type": "function"
    },
    {
      "inputs": [
        {
          "internalType": "string",
          "name": "_line1",
          "type": "string"
        },
        {
          "internalType": "string",
          "name": "_line2",
          "type": "string"
        },
        {
          "internalType": "string",
          "name": "_line3",
          "type": "string"
        }
      ],
      "name": "mintHaiku",
      "outputs": [],
      "stateMutability": "nonpayable",
      "type": "function"
    },
    {
      "inputs": [],
      "name": "name",
      "outputs": [
        {
          "internalType": "string",
          "name": "",
          "type": "string"
        }
      ],
      "stateMutability": "view",
      "type": "function"
    },
    {
      "inputs": [
        {
          "internalType": "uint256",
          "name": "tokenId",
          "type": "uint256"
        }
      ],
      "name": "ownerOf",
      "outputs": [
        {
          "internalType": "address",
          "name": "",
          "type": "address"
        }
      ],
      "stateMutability": "view",
      "type": "function"
    },
    {
      "inputs": [
        {
          "internalType": "address",
          "name": "from",
          "type": "address"
        },
        {
          "internalType": "address",
          "name": "to",
          "type": "address"
        },
        {
          "internalType": "uint256",
          "name": "tokenId",
          "type": "uint256"
        }
      ],
      "name": "safeTransferFrom",
      "outputs": [],
      "stateMutability": "nonpayable",
      "type": "function"
    },
    {
      "inputs": [
        {
          "internalType": "address",
          "name": "from",
          "type": "address"
        },
        {
          "internalType": "address",
          "name": "to",
          "type": "address"
        },
        {
          "internalType": "uint256",
          "name": "tokenId",
          "type": "uint256"
        },
        {
          "internalType": "bytes",
          "name": "data",
          "type": "bytes"
        }
      ],
      "name": "safeTransferFrom",
      "outputs": [],
      "stateMutability": "nonpayable",
      "type": "function"
    },
    {
      "inputs": [
        {
          "internalType": "address",
          "name": "operator",
          "type": "address"
        },
        {
          "internalType": "bool",
          "name": "approved",
          "type": "bool"
        }
      ],
      "name": "setApprovalForAll",
      "outputs": [],
      "stateMutability": "nonpayable",
      "type": "function"
    },
    {
      "inputs": [
        {
          "internalType": "uint256",
          "name": "_tokenId",
          "type": "uint256"
        },
        {
          "internalType": "address",
          "name": "_to",
          "type": "address"
        }
      ],
      "name": "shareHaiku",
      "outputs": [],
      "stateMutability": "nonpayable",
      "type": "function"
    },
    {
      "inputs": [
        {
          "internalType": "address",
          "name": "",
          "type": "address"
        },
        {
          "internalType": "uint256",
          "name": "",
          "type": "uint256"
        }
      ],
      "name": "sharedHaikus",
      "outputs": [
        {
          "internalType": "uint256",
          "name": "",
          "type": "uint256"
        }
      ],
      "stateMutability": "view",
      "type": "function"
    },
    {
      "inputs": [
        {
          "internalType": "bytes4",
          "name": "interfaceId",
          "type": "bytes4"
        }
      ],
      "name": "supportsInterface",
      "outputs": [
        {
          "internalType": "bool",
          "name": "",
          "type": "bool"
        }
      ],
      "stateMutability": "view",
      "type": "function"
    },
    {
      "inputs": [],
      "name": "symbol",
      "outputs": [
        {
          "internalType": "string",
          "name": "",
          "type": "string"
        }
      ],
      "stateMutability": "view",
      "type": "function"
    },
    {
      "inputs": [
        {
          "internalType": "uint256",
          "name": "tokenId",
          "type": "uint256"
        }
      ],
      "name": "tokenURI",
      "outputs": [
        {
          "internalType": "string",
          "name": "",
          "type": "string"
        }
      ],
      "stateMutability": "view",
      "type": "function"
    },
    {
      "inputs": [
        {
          "internalType": "address",
          "name": "from",
          "type": "address"
        },
        {
          "internalType": "address",
          "name": "to",
          "type": "address"
        },
        {
          "internalType": "uint256",
          "name": "tokenId",
          "type": "uint256"
        }
      ],
      "name": "transferFrom",
      "outputs": [],
      "stateMutability": "nonpayable",
      "type": "function"
    }
  ],
  "bytecode": "0x60806040523480156200001157600080fd5b506040516200213738038062002137833981016040819052620000349162000129565b8181600062000044838262000222565b50600162000053828262000222565b5050600160095550620002ee915050565b634e487b7160e01b600052604160045260246000fd5b600082601f8301126200008c57600080fd5b81516001600160401b0380821115620000a957620000a962000064565b604051601f8301601f19908116603f01168101908282118183101715620000d457620000d462000064565b81604052838152602092508683858801011115620000f157600080fd5b600091505b83821015620001155785820183015181830184015290820190620000f6565b600093810190920192909252949350505050565b600080604083850312156200013d57600080fd5b82516001600160401b03808211156200015557600080fd5b62000163868387016200007a565b935060208501519150808211156200017a57600080fd5b5062000189858286016200007a565b9150509250929050565b600181811c90821680620001a857607f821691505b602082108103620001c957634e487b7160e01b600052602260045260246000fd5b50919050565b601f8211156200021d57600081815260208120601f850160051c81016020861015620001f85750805b601f850160051c820191505b81811015620002195782815560010162000204565b5050505b505050565b81516001600160401b038111156200023e576200023e62000064565b62000256816200024f845462000193565b84620001cf565b602080601f8311600181146200028e5760008415620002755750858301515b600019600386901b1c1916600185901b17855562000219565b600085815260208120601f198616915b82811015620002bf578886015182559484019460019091019084016200029e565b5085821015620002de5787850151600019600388901b60f8161c191681555b5050505050600190811b01905550565b611e3980620002fe6000396000f3fe608060405234801561001057600080fd5b506004361061016c5760003560e01c80636352211e116100cd578063a22cb46511610081578063c87b56dd11610066578063c87b56dd146102f0578063e985e9c514610303578063f9bfb7c11461033f57600080fd5b8063a22cb465146102ca578063b88d4fde146102dd57600080fd5b80637cb82b2a116100b25780637cb82b2a1461028c57806395d89b41146102af57806397afe82d146102b757600080fd5b80636352211e1461026657806370a082311461027957600080fd5b80632c83ea561161012457806342842e0e1161010957806342842e0e1461022757806349af5bfe1461023a57806361bc221a1461024f57600080fd5b80632c83ea5614610201578063350fe1651461021457600080fd5b8063081812fc11610155578063081812fc146101ae578063095ea7b3146101d957806323b872dd146101ee57600080fd5b806301ffc9a71461017157806306fdde0314610199575b600080fd5b61018461017f36600461172e565b610362565b60405190151581526020015b60405180910390f35b6101a16103ff565b604051610190919061179b565b6101c16101bc3660046117ae565b610491565b6040516001600160a01b039091168152602001610190565b6101ec6101e73660046117e3565b6104ba565b005b6101ec6101fc36600461180d565b6104c9565b6101ec61020f366004611849565b610572565b6101ec6102223660046118be565b6105e6565b6101ec61023536600461180d565b6108d5565b6102426108f5565b6040516101909190611958565b61025860095481565b604051908152602001610190565b6101c16102743660046117ae565b610c76565b610258610287366004611a0d565b610c81565b61029f61029a3660046117ae565b610ce2565b6040516101909493929190611a28565b6101a1610ec0565b6102586102c53660046117e3565b610ecf565b6101ec6102d8366004611a7b565b610f00565b6101ec6102eb366004611acd565b610f0b565b6101a16102fe3660046117ae565b610f23565b610184610311366004611ba9565b6001600160a01b03918216600090815260056020908152604080832093909416825291909152205460ff1690565b61018461034d3660046117ae565b60066020526000908152604090205460ff1681565b60006001600160e01b031982167f80ac58cd0000000000000000000000000000000000000000000000000000000014806103c557506001600160e01b031982167f5b5e139f00000000000000000000000000000000000000000000000000000000145b806103f957507f01ffc9a7000000000000000000000000000000000000000000000000000000006001600160e01b03198316145b92915050565b60606000805461040e90611bd3565b80601f016020809104026020016040519081016040528092919081815260200182805461043a90611bd3565b80156104875780601f1061045c57610100808354040283529160200191610487565b820191906000526020600020905b81548152906001019060200180831161046a57829003601f168201915b5050505050905090565b600061049c82610f98565b506000828152600460205260409020546001600160a01b03166103f9565b6104c5828233610fd1565b5050565b6001600160a01b0382166104f857604051633250574960e11b8152600060048201526024015b60405180910390fd5b6000610505838333610fde565b9050836001600160a01b0316816001600160a01b03161461056c576040517f64283d7b0000000000000000000000000000000000000000000000000000000081526001600160a01b03808616600483015260248201849052821660448201526064016104ef565b50505050565b3361057c83610c76565b6001600160a01b0316146105bc576040517fe30f026900000000000000000000000000000000000000000000000000000000815260040160405180910390fd5b6001600160a01b031660009081526008602090815260408220805460018101825590835291200155565b600086866040516020016105fb929190611c0d565b60405160208183030381529060405280519060200120905060008585604051602001610628929190611c0d565b60405160208183030381529060405280519060200120905060008484604051602001610655929190611c0d565b60408051601f1981840301815291815281516020928301206000868152600690935291205490915060ff1680610699575060008281526006602052604090205460ff165b806106b2575060008181526006602052604090205460ff165b156106e9576040517f693a889e00000000000000000000000000000000000000000000000000000000815260040160405180910390fd5b60008381526006602090815260408083208054600160ff19918216811790925586855282852080548216831790558585528285208054909116909117905580516080810182523381528151601f8d018490048402810184019092528b82529182810191908d908d9081908401838280828437600092019190915250505090825250604080516020601f8c018190048102820181019092528a815291810191908b908b9081908401838280828437600092019190915250505090825250604080516020601f8a01819004810282018101909252888152918101919089908990819084018382808284376000920182905250939094525050600780546001810182559152825160049091027fa66cc928b5edb82af9bd49922954155ab7b0942694bea4ce44661d9a8736c688810180546001600160a01b0390931673ffffffffffffffffffffffffffffffffffffffff19909316929092178255602084015193945084939192507fa66cc928b5edb82af9bd49922954155ab7b0942694bea4ce44661d9a8736c689019061087b9082611c63565b50604082015160028201906108909082611c63565b50606082015160038201906108a59082611c63565b5050506108b4336009546110e4565b600980549060006108c483611d39565b919050555050505050505050505050565b6108f083838360405180602001604052806000815250610f0b565b505050565b33600090815260086020908152604080832080548251818502810185019093528083526060949383018282801561094b57602002820191906000526020600020905b815481526020019060010190808311610937575b5050505050905060008151905080600003610992576040517ff8826a6900000000000000000000000000000000000000000000000000000000815260040160405180910390fd5b60008167ffffffffffffffff8111156109ad576109ad611ab7565b604051908082528060200260200182016040528015610a1257816020015b6109ff604051806080016040528060006001600160a01b031681526020016060815260200160608152602001606081525090565b8152602001906001900390816109cb5790505b50905060005b82811015610c6e5760076001858381518110610a3657610a36611d52565b6020026020010151610a489190611d68565b81548110610a5857610a58611d52565b6000918252602091829020604080516080810190915260049092020180546001600160a01b031682526001810180549293919291840191610a9890611bd3565b80601f0160208091040260200160405190810160405280929190818152602001828054610ac490611bd3565b8015610b115780601f10610ae657610100808354040283529160200191610b11565b820191906000526020600020905b815481529060010190602001808311610af457829003601f168201915b50505050508152602001600282018054610b2a90611bd3565b80601f0160208091040260200160405190810160405280929190818152602001828054610b5690611bd3565b8015610ba35780601f10610b7857610100808354040283529160200191610ba3565b820191906000526020600020905b815481529060010190602001808311610b8657829003601f168201915b50505050508152602001600382018054610bbc90611bd3565b80601f0160208091040260200160405190810160405280929190818152602001828054610be890611bd3565b8015610c355780601f10610c0a57610100808354040283529160200191610c35565b820191906000526020600020905b815481529060010190602001808311610c1857829003601f168201915b505050505081525050828281518110610c5057610c50611d52565b60200260200101819052508080610c6690611d39565b915050610a18565b509392505050565b60006103f982610f98565b60006001600160a01b038216610cc6576040517f89c62b64000000000000000000000000000000000000000000000000000000008152600060048201526024016104ef565b506001600160a01b031660009081526003602052604090205490565b60078181548110610cf257600080fd5b6000918252602090912060049091020180546001820180546001600160a01b03909216935090610d2190611bd3565b80601f0160208091040260200160405190810160405280929190818152602001828054610d4d90611bd3565b8015610d9a5780601f10610d6f57610100808354040283529160200191610d9a565b820191906000526020600020905b815481529060010190602001808311610d7d57829003601f168201915b505050505090806002018054610daf90611bd3565b80601f0160208091040260200160405190810160405280929190818152602001828054610ddb90611bd3565b8015610e285780601f10610dfd57610100808354040283529160200191610e28565b820191906000526020600020905b815481529060010190602001808311610e0b57829003601f168201915b505050505090806003018054610e3d90611bd3565b80601f0160208091040260200160405190810160405280929190818152602001828054610e6990611bd3565b8015610eb65780601f10610e8b57610100808354040283529160200191610eb6565b820191906000526020600020905b815481529060010190602001808311610e9957829003601f168201915b5050505050905084565b60606001805461040e90611bd3565b60086020528160005260406000208181548110610eeb57600080fd5b90600052602060002001600091509150505481565b6104c5338383611162565b610f168484846104c9565b61056c338585858561121a565b6060610f2e82610f98565b506000610f4660408051602081019091526000815290565b90506000815111610f665760405180602001604052806000815250610f91565b80610f7084611345565b604051602001610f81929190611d7b565b6040516020818303038152906040525b9392505050565b6000818152600260205260408120546001600160a01b0316806103f957604051637e27328960e01b8152600481018490526024016104ef565b6108f083838360016113e5565b6000828152600260205260408120546001600160a01b039081169083161561100b5761100b818486611530565b6001600160a01b03811615611049576110286000856000806113e5565b6001600160a01b038116600090815260036020526040902080546000190190555b6001600160a01b03851615611078576001600160a01b0385166000908152600360205260409020805460010190555b600084815260026020526040808220805473ffffffffffffffffffffffffffffffffffffffff19166001600160a01b0389811691821790925591518793918516917fddf252ad1be2c89b69c2b068fc378daa952ba7f163c4a11628f55a4df523b3ef91a4949350505050565b6001600160a01b03821661110e57604051633250574960e11b8152600060048201526024016104ef565b600061111c83836000610fde565b90506001600160a01b038116156108f0576040517f73c6ac6e000000000000000000000000000000000000000000000000000000008152600060048201526024016104ef565b6001600160a01b0382166111ad576040517f5b08ba180000000000000000000000000000000000000000000000000000000081526001600160a01b03831660048201526024016104ef565b6001600160a01b03838116600081815260056020908152604080832094871680845294825291829020805460ff191686151590811790915591519182527f17307eab39ab6107e8899845ad3d59bd9653f200f220920489ca2b5937696c31910160405180910390a3505050565b6001600160a01b0383163b1561133e57604051630a85bd0160e11b81526001600160a01b0384169063150b7a029061125c908890889087908790600401611daa565b6020604051808303816000875af1925050508015611297575060408051601f3d908101601f1916820190925261129491810190611de6565b60015b611300573d8080156112c5576040519150601f19603f3d011682016040523d82523d6000602084013e6112ca565b606091505b5080516000036112f857604051633250574960e11b81526001600160a01b03851660048201526024016104ef565b805160208201fd5b6001600160e01b03198116630a85bd0160e11b1461133c57604051633250574960e11b81526001600160a01b03851660048201526024016104ef565b505b5050505050565b60606000611352836115ad565b600101905060008167ffffffffffffffff81111561137257611372611ab7565b6040519080825280601f01601f19166020018201604052801561139c576020820181803683370190505b5090508181016020015b600019017f3031323334353637383961626364656600000000000000000000000000000000600a86061a8153600a85049450846113a657509392505050565b80806113f957506001600160a01b03821615155b156114f357600061140984610f98565b90506001600160a01b038316158015906114355750826001600160a01b0316816001600160a01b031614155b801561146757506001600160a01b0380821660009081526005602090815260408083209387168352929052205460ff16155b156114a9576040517fa9fbf51f0000000000000000000000000000000000000000000000000000000081526001600160a01b03841660048201526024016104ef565b81156114f15783856001600160a01b0316826001600160a01b03167f8c5be1e5ebec7d5bd14f71427d1e84f3dd0314c0f7b2291e5b200ac8c7c3b92560405160405180910390a45b505b50506000908152600460205260409020805473ffffffffffffffffffffffffffffffffffffffff19166001600160a01b0392909216919091179055565b61153b83838361168f565b6108f0576001600160a01b03831661156957604051637e27328960e01b8152600481018290526024016104ef565b6040517f177e802f0000000000000000000000000000000000000000000000000000000081526001600160a01b0383166004820152602481018290526044016104ef565b6000807a184f03e93ff9f4daa797ed6e38ed64bf6a1f01000000000000000083106115f6577a184f03e93ff9f4daa797ed6e38ed64bf6a1f010000000000000000830492506040015b6d04ee2d6d415b85acef81000000008310611622576d04ee2d6d415b85acef8100000000830492506020015b662386f26fc10000831061164057662386f26fc10000830492506010015b6305f5e1008310611658576305f5e100830492506008015b612710831061166c57612710830492506004015b6064831061167e576064830492506002015b600a83106103f95760010192915050565b60006001600160a01b0383161580159061170d5750826001600160a01b0316846001600160a01b031614806116e957506001600160a01b0380851660009081526005602090815260408083209387168352929052205460ff165b8061170d57506000828152600460205260409020546001600160a01b038481169116145b949350505050565b6001600160e01b03198116811461172b57600080fd5b50565b60006020828403121561174057600080fd5b8135610f9181611715565b60005b8381101561176657818101518382015260200161174e565b50506000910152565b6000815180845261178781602086016020860161174b565b601f01601f19169290920160200192915050565b602081526000610f91602083018461176f565b6000602082840312156117c057600080fd5b5035919050565b80356001600160a01b03811681146117de57600080fd5b919050565b600080604083850312156117f657600080fd5b6117ff836117c7565b946020939093013593505050565b60008060006060848603121561182257600080fd5b61182b846117c7565b9250611839602085016117c7565b9150604084013590509250925092565b6000806040838503121561185c57600080fd5b8235915061186c602084016117c7565b90509250929050565b60008083601f84011261188757600080fd5b50813567ffffffffffffffff81111561189f57600080fd5b6020830191508360208285010111156118b757600080fd5b9250929050565b600080600080600080606087890312156118d757600080fd5b863567ffffffffffffffff808211156118ef57600080fd5b6118fb8a838b01611875565b9098509650602089013591508082111561191457600080fd5b6119208a838b01611875565b9096509450604089013591508082111561193957600080fd5b5061194689828a01611875565b979a9699509497509295939492505050565b60006020808301818452808551808352604092508286019150828160051b87010184880160005b838110156119ff57603f19898403018552815160806001600160a01b03825116855288820151818a8701526119b68287018261176f565b91505087820151858203898701526119ce828261176f565b915050606080830151925085820381870152506119eb818361176f565b96890196945050509086019060010161197f565b509098975050505050505050565b600060208284031215611a1f57600080fd5b610f91826117c7565b6001600160a01b0385168152608060208201526000611a4a608083018661176f565b8281036040840152611a5c818661176f565b90508281036060840152611a70818561176f565b979650505050505050565b60008060408385031215611a8e57600080fd5b611a97836117c7565b915060208301358015158114611aac57600080fd5b809150509250929050565b634e487b7160e01b600052604160045260246000fd5b60008060008060808587031215611ae357600080fd5b611aec856117c7565b9350611afa602086016117c7565b925060408501359150606085013567ffffffffffffffff80821115611b1e57600080fd5b818701915087601f830112611b3257600080fd5b813581811115611b4457611b44611ab7565b604051601f8201601f19908116603f01168101908382118183101715611b6c57611b6c611ab7565b816040528281528a6020848701011115611b8557600080fd5b82602086016020830137600060208483010152809550505050505092959194509250565b60008060408385031215611bbc57600080fd5b611bc5836117c7565b915061186c602084016117c7565b600181811c90821680611be757607f821691505b602082108103611c0757634e487b7160e01b600052602260045260246000fd5b50919050565b8183823760009101908152919050565b601f8211156108f057600081815260208120601f850160051c81016020861015611c445750805b601f850160051c820191505b8181101561133c57828155600101611c50565b815167ffffffffffffffff811115611c7d57611c7d611ab7565b611c9181611c8b8454611bd3565b84611c1d565b602080601f831160018114611cc65760008415611cae5750858301515b600019600386901b1c1916600185901b17855561133c565b600085815260208120601f198616915b82811015611cf557888601518255948401946001909101908401611cd6565b5085821015611d135787850151600019600388901b60f8161c191681555b5050505050600190811b01905550565b634e487b7160e01b600052601160045260246000fd5b600060018201611d4b57611d4b611d23565b5060010190565b634e487b7160e01b600052603260045260246000fd5b818103818111156103f9576103f9611d23565b60008351611d8d81846020880161174b565b835190830190611da181836020880161174b565b01949350505050565b60006001600160a01b03808716835280861660208401525083604083015260806060830152611ddc608083018461176f565b9695505050505050565b600060208284031215611df857600080fd5b8151610f918161171556fea26469706673582212208c5359d8a7befb62b87cbf5f7744c3df4f76ca7cf48d3622f0df1980e3b4672e64736f6c63430008140033",
  "linkReferences": {},
  "deployedLinkReferences": {}
}