{
  "_format": "hh-sol-artifact-1",
  "contractName": "InheritanceSubmission",
  "sourceName": "contracts/07_Inheritance.sol",
  "abi": [
    {
      "inputs": [
        {
          "internalType": "address",
          "name": "_salesPerson",
          "type": "address"
        },
        {
          "internalType": "address",
          "name": "_engineeringManager",
          "type": "address"
        }
      ],
      "stateMutability": "nonpayable",
      "type": "constructor"
    },
    {
      "inputs": [],
      "name": "engineeringManager",
      "outputs": [
        {
          "internalType": "address",
          "name": "",
          "type": "address"
        }
      ],
      "stateMutability": "view",
      "type": "function"
    },
    {
      "inputs": [],
      "name": "salesPerson",
      "outputs": [
        {
          "internalType": "address",
          "name": "",
          "type": "address"
        }
      ],
      "stateMutability": "view",
      "type": "function"
    }
  ],
  "bytecode": "0x608060405234801561001057600080fd5b5060405161019138038061019183398101604081905261002f9161007c565b600080546001600160a01b039384166001600160a01b031991821617909155600180549290931691161790556100af565b80516001600160a01b038116811461007757600080fd5b919050565b6000806040838503121561008f57600080fd5b61009883610060565b91506100a660208401610060565b90509250929050565b60d4806100bd6000396000f3fe6080604052348015600f57600080fd5b506004361060325760003560e01c80630f628194146037578063687981dd14607f575b600080fd5b60005460569073ffffffffffffffffffffffffffffffffffffffff1681565b60405173ffffffffffffffffffffffffffffffffffffffff909116815260200160405180910390f35b60015460569073ffffffffffffffffffffffffffffffffffffffff168156fea26469706673582212200a5482e669e9f2f64c87a5dc67af80f7a25bc93e07a653ac42815c1d8519728564736f6c63430008140033",
  "linkReferences": {},
  "deployedLinkReferences": {}
}