{
  "_format": "hh-sol-artifact-1",
  "contractName": "AddressBook",
  "sourceName": "contracts/10_NewExercise.sol",
  "abi": [
    {
      "inputs": [
        {
          "internalType": "address",
          "name": "_initialOwner",
          "type": "address"
        }
      ],
      "stateMutability": "nonpayable",
      "type": "constructor"
    },
    {
      "inputs": [
        {
          "internalType": "uint256",
          "name": "_id",
          "type": "uint256"
        }
      ],
      "name": "ContactNotFound",
      "type": "error"
    },
    {
      "inputs": [
        {
          "internalType": "address",
          "name": "owner",
          "type": "address"
        }
      ],
      "name": "OwnableInvalidOwner",
      "type": "error"
    },
    {
      "inputs": [
        {
          "internalType": "address",
          "name": "account",
          "type": "address"
        }
      ],
      "name": "OwnableUnauthorizedAccount",
      "type": "error"
    },
    {
      "anonymous": false,
      "inputs": [
        {
          "indexed": true,
          "internalType": "address",
          "name": "previousOwner",
          "type": "address"
        },
        {
          "indexed": true,
          "internalType": "address",
          "name": "newOwner",
          "type": "address"
        }
      ],
      "name": "OwnershipTransferred",
      "type": "event"
    },
    {
      "inputs": [
        {
          "internalType": "string",
          "name": "_firstName",
          "type": "string"
        },
        {
          "internalType": "string",
          "name": "_lastName",
          "type": "string"
        },
        {
          "internalType": "uint256[]",
          "name": "_phoneNumbers",
          "type": "uint256[]"
        }
      ],
      "name": "addContact",
      "outputs": [],
      "stateMutability": "nonpayable",
      "type": "function"
    },
    {
      "inputs": [
        {
          "internalType": "uint256",
          "name": "_id",
          "type": "uint256"
        }
      ],
      "name": "deleteContact",
      "outputs": [],
      "stateMutability": "nonpayable",
      "type": "function"
    },
    {
      "inputs": [],
      "name": "getAllContacts",
      "outputs": [
        {
          "components": [
            {
              "internalType": "uint256",
              "name": "id",
              "type": "uint256"
            },
            {
              "internalType": "string",
              "name": "firstName",
              "type": "string"
            },
            {
              "internalType": "string",
              "name": "lastName",
              "type": "string"
            },
            {
              "internalType": "uint256[]",
              "name": "phoneNumbers",
              "type": "uint256[]"
            }
          ],
          "internalType": "struct AddressBook.Contact[]",
          "name": "",
          "type": "tuple[]"
        }
      ],
      "stateMutability": "view",
      "type": "function"
    },
    {
      "inputs": [
        {
          "internalType": "uint256",
          "name": "_id",
          "type": "uint256"
        }
      ],
      "name": "getContact",
      "outputs": [
        {
          "components": [
            {
              "internalType": "uint256",
              "name": "id",
              "type": "uint256"
            },
            {
              "internalType": "string",
              "name": "firstName",
              "type": "string"
            },
            {
              "internalType": "string",
              "name": "lastName",
              "type": "string"
            },
            {
              "internalType": "uint256[]",
              "name": "phoneNumbers",
              "type": "uint256[]"
            }
          ],
          "internalType": "struct AddressBook.Contact",
          "name": "",
          "type": "tuple"
        }
      ],
      "stateMutability": "view",
      "type": "function"
    },
    {
      "inputs": [],
      "name": "owner",
      "outputs": [
        {
          "internalType": "address",
          "name": "",
          "type": "address"
        }
      ],
      "stateMutability": "view",
      "type": "function"
    },
    {
      "inputs": [],
      "name": "renounceOwnership",
      "outputs": [],
      "stateMutability": "nonpayable",
      "type": "function"
    },
    {
      "inputs": [
        {
          "internalType": "address",
          "name": "newOwner",
          "type": "address"
        }
      ],
      "name": "transferOwnership",
      "outputs": [],
      "stateMutability": "nonpayable",
      "type": "function"
    }
  ],
  "bytecode": "0x608060405234801561001057600080fd5b50604051610fcf380380610fcf83398101604081905261002f916100be565b806001600160a01b03811661005e57604051631e4fbdf760e01b81526000600482015260240160405180910390fd5b6100678161006e565b50506100ee565b600080546001600160a01b038381166001600160a01b0319831681178455604051919092169283917f8be0079c531659141344cd1fd0a4f28419497f9722a3daafe3b4186f6b6457e09190a35050565b6000602082840312156100d057600080fd5b81516001600160a01b03811681146100e757600080fd5b9392505050565b610ed2806100fd6000396000f3fe608060405234801561001057600080fd5b506004361061007d5760003560e01c8063b9ed6fca1161005b578063b9ed6fca146100bf578063e6505e1e146100d2578063ef1d6ddd146100f2578063f2fde38b1461010757600080fd5b80633f06f6e814610082578063715018a6146100975780638da5cb5b1461009f575b600080fd5b610095610090366004610a7c565b61011a565b005b61009561028c565b6000546040516001600160a01b0390911681526020015b60405180910390f35b6100956100cd366004610b45565b6102a0565b6100e56100e0366004610b45565b6103e6565b6040516100b69190610c2a565b6100fa6105f6565b6040516100b69190610c44565b610095610115366004610ca6565b61087a565b6101226108d1565b6040518060800160405280600354815260200187878080601f016020809104026020016040519081016040528093929190818152602001838380828437600092019190915250505090825250604080516020601f88018190048102820181019092528681529181019190879087908190840183828082843760009201919091525050509082525060408051602085810282810182019093528582529283019290918691869182918501908490808284376000920182905250939094525050600354815260016020818152604090922084518155918401519192508201906102099082610d68565b506040820151600282019061021e9082610d68565b506060820151805161023a91600384019160209091019061097f565b5050600380546002805460018101825560009182527f405787fa12a823e0f2b7631cc41b3ba8828b3321ca811111fa75cd3aa3bb5ace0182905591925061028090610e3e565b90915550505050505050565b6102946108d1565b61029e6000610917565b565b6102a86108d1565b60008181526001602081905260409091200180546102c590610ce5565b90506000036102ee57604051623d577b60ea1b8152600481018290526024015b60405180910390fd5b60008181526001602081905260408220828155919061030f908301826109ca565b61031d6002830160006109ca565b61032b600383016000610a04565b505060005b6002548110156103e257816002828154811061034e5761034e610e57565b9060005260206000200154036103d0576002805461036e90600190610e6d565b8154811061037e5761037e610e57565b90600052602060002001546002828154811061039c5761039c610e57565b60009182526020909120015560028054806103b9576103b9610e86565b600190038181906000526020600020016000905590555b806103da81610e3e565b915050610330565b5050565b6104116040518060800160405280600081526020016060815260200160608152602001606081525090565b600082815260016020819052604090912001805461042e90610ce5565b905060000361045257604051623d577b60ea1b8152600481018390526024016102e5565b6000828152600160208181526040928390208351608081019094528054845291820180549184019161048390610ce5565b80601f01602080910402602001604051908101604052809291908181526020018280546104af90610ce5565b80156104fc5780601f106104d1576101008083540402835291602001916104fc565b820191906000526020600020905b8154815290600101906020018083116104df57829003601f168201915b5050505050815260200160028201805461051590610ce5565b80601f016020809104026020016040519081016040528092919081815260200182805461054190610ce5565b801561058e5780601f106105635761010080835404028352916020019161058e565b820191906000526020600020905b81548152906001019060200180831161057157829003601f168201915b50505050508152602001600382018054806020026020016040519081016040528092919081815260200182805480156105e657602002820191906000526020600020905b8154815260200190600101908083116105d2575b5050505050815250509050919050565b60025460609060009067ffffffffffffffff81111561061757610617610ccf565b60405190808252806020026020018201604052801561067357816020015b6106606040518060800160405280600081526020016060815260200160608152602001606081525090565b8152602001906001900390816106355790505b50905060005b60025481101561087457600160006002838154811061069a5761069a610e57565b90600052602060002001548152602001908152602001600020604051806080016040529081600082015481526020016001820180546106d890610ce5565b80601f016020809104026020016040519081016040528092919081815260200182805461070490610ce5565b80156107515780601f1061072657610100808354040283529160200191610751565b820191906000526020600020905b81548152906001019060200180831161073457829003601f168201915b5050505050815260200160028201805461076a90610ce5565b80601f016020809104026020016040519081016040528092919081815260200182805461079690610ce5565b80156107e35780601f106107b8576101008083540402835291602001916107e3565b820191906000526020600020905b8154815290600101906020018083116107c657829003601f168201915b505050505081526020016003820180548060200260200160405190810160405280929190818152602001828054801561083b57602002820191906000526020600020905b815481526020019060010190808311610827575b50505050508152505082828151811061085657610856610e57565b6020026020010181905250808061086c90610e3e565b915050610679565b50919050565b6108826108d1565b6001600160a01b0381166108c5576040517f1e4fbdf7000000000000000000000000000000000000000000000000000000008152600060048201526024016102e5565b6108ce81610917565b50565b6000546001600160a01b0316331461029e576040517f118cdaa70000000000000000000000000000000000000000000000000000000081523360048201526024016102e5565b600080546001600160a01b038381167fffffffffffffffffffffffff0000000000000000000000000000000000000000831681178455604051919092169283917f8be0079c531659141344cd1fd0a4f28419497f9722a3daafe3b4186f6b6457e09190a35050565b8280548282559060005260206000209081019282156109ba579160200282015b828111156109ba57825182559160200191906001019061099f565b506109c6929150610a1e565b5090565b5080546109d690610ce5565b6000825580601f106109e6575050565b601f0160209004906000526020600020908101906108ce9190610a1e565b50805460008255906000526020600020908101906108ce91905b5b808211156109c65760008155600101610a1f565b60008083601f840112610a4557600080fd5b50813567ffffffffffffffff811115610a5d57600080fd5b602083019150836020828501011115610a7557600080fd5b9250929050565b60008060008060008060608789031215610a9557600080fd5b863567ffffffffffffffff80821115610aad57600080fd5b610ab98a838b01610a33565b90985096506020890135915080821115610ad257600080fd5b610ade8a838b01610a33565b90965094506040890135915080821115610af757600080fd5b818901915089601f830112610b0b57600080fd5b813581811115610b1a57600080fd5b8a60208260051b8501011115610b2f57600080fd5b6020830194508093505050509295509295509295565b600060208284031215610b5757600080fd5b5035919050565b6000815180845260005b81811015610b8457602081850181015186830182015201610b68565b506000602082860101526020601f19601f83011685010191505092915050565b805182526000602080830151608082860152610bc36080860182610b5e565b905060408401518582036040870152610bdc8282610b5e565b606086810151888303918901919091528051808352908501935060009250908401905b80831015610c1f5783518252928401926001929092019190840190610bff565b509695505050505050565b602081526000610c3d6020830184610ba4565b9392505050565b6000602080830181845280855180835260408601915060408160051b870101925083870160005b82811015610c9957603f19888603018452610c87858351610ba4565b94509285019290850190600101610c6b565b5092979650505050505050565b600060208284031215610cb857600080fd5b81356001600160a01b0381168114610c3d57600080fd5b634e487b7160e01b600052604160045260246000fd5b600181811c90821680610cf957607f821691505b60208210810361087457634e487b7160e01b600052602260045260246000fd5b601f821115610d6357600081815260208120601f850160051c81016020861015610d405750805b601f850160051c820191505b81811015610d5f57828155600101610d4c565b5050505b505050565b815167ffffffffffffffff811115610d8257610d82610ccf565b610d9681610d908454610ce5565b84610d19565b602080601f831160018114610dcb5760008415610db35750858301515b600019600386901b1c1916600185901b178555610d5f565b600085815260208120601f198616915b82811015610dfa57888601518255948401946001909101908401610ddb565b5085821015610e185787850151600019600388901b60f8161c191681555b5050505050600190811b01905550565b634e487b7160e01b600052601160045260246000fd5b600060018201610e5057610e50610e28565b5060010190565b634e487b7160e01b600052603260045260246000fd5b81810381811115610e8057610e80610e28565b92915050565b634e487b7160e01b600052603160045260246000fdfea264697066735822122059a86062dd72183faf502ec142b20337003516f7d98990b2071bcbfa1513874164736f6c63430008140033",
  "linkReferences": {},
  "deployedLinkReferences": {}
}