{
  "_format": "hh-sol-artifact-1",
  "contractName": "ControlStructures",
  "sourceName": "contracts/02_ControlStructures.sol",
  "abi": [
    {
      "inputs": [
        {
          "internalType": "uint256",
          "name": "_time",
          "type": "uint256"
        }
      ],
      "name": "AfterHours",
      "type": "error"
    },
    {
      "inputs": [
        {
          "internalType": "uint256",
          "name": "_time",
          "type": "uint256"
        }
      ],
      "name": "doNotDisturb",
      "outputs": [
        {
          "internalType": "string",
          "name": "",
          "type": "string"
        }
      ],
      "stateMutability": "pure",
      "type": "function"
    },
    {
      "inputs": [
        {
          "internalType": "uint256",
          "name": "_number",
          "type": "uint256"
        }
      ],
      "name": "fizzBuzz",
      "outputs": [
        {
          "internalType": "string",
          "name": "",
          "type": "string"
        }
      ],
      "stateMutability": "pure",
      "type": "function"
    }
  ],
  "bytecode": "0x608060405234801561001057600080fd5b5061041d806100206000396000f3fe608060405234801561001057600080fd5b50600436106100365760003560e01c8063440c93e21461003b578063e655b7bb14610064575b600080fd5b61004e610049366004610348565b610077565b60405161005b9190610361565b60405180910390f35b61004e610072366004610348565b610193565b60606100846003836103af565b60000361010f576100966005836103af565b6000036100d657505060408051808201909152600881527f46697a7a42757a7a000000000000000000000000000000000000000000000000602082015290565b505060408051808201909152600481527f46697a7a00000000000000000000000000000000000000000000000000000000602082015290565b61011a6005836103af565b60000361015a57505060408051808201909152600481527f42757a7a00000000000000000000000000000000000000000000000000000000602082015290565b505060408051808201909152600581527f53706c6174000000000000000000000000000000000000000000000000000000602082015290565b606061096082106101a6576101a66103d1565b6108988211806101b7575061032082105b156101f6576040517fa4bf701e000000000000000000000000000000000000000000000000000000008152600481018390526024015b60405180910390fd5b6103208211801561020857506104af82105b1561024657505060408051808201909152600881527f4d6f726e696e6721000000000000000000000000000000000000000000000000602082015290565b6104b08211801561025857506104eb82105b156102bf576040517f08c379a000000000000000000000000000000000000000000000000000000000815260206004820152600960248201527f4174206c756e636821000000000000000000000000000000000000000000000060448201526064016101ed565b610514821180156102d1575061070782105b1561030f57505060408051808201909152600a81527f41667465726e6f6f6e2100000000000000000000000000000000000000000000602082015290565b505060408051808201909152600881527f4576656e696e6721000000000000000000000000000000000000000000000000602082015290565b60006020828403121561035a57600080fd5b5035919050565b600060208083528351808285015260005b8181101561038e57858101830151858201604001528201610372565b506000604082860101526040601f19601f8301168501019250505092915050565b6000826103cc57634e487b7160e01b600052601260045260246000fd5b500690565b634e487b7160e01b600052600160045260246000fdfea2646970667358221220e19dcc6562d88e97e59853f8f8ae873a37d4261140f57e423adbe62e7024236d64736f6c63430008140033",
  "linkReferences": {},
  "deployedLinkReferences": {}
}