{
  "_format": "hh-sol-artifact-1",
  "contractName": "WeightedVoting",
  "sourceName": "contracts/12_WeightedVoting.sol",
  "abi": [
    {
      "inputs": [
        {
          "internalType": "string",
          "name": "name_",
          "type": "string"
        },
        {
          "internalType": "string",
          "name": "symbol_",
          "type": "string"
        }
      ],
      "stateMutability": "nonpayable",
      "type": "constructor"
    },
    {
      "inputs": [],
      "name": "AllTokensClaimed",
      "type": "error"
    },
    {
      "inputs": [],
      "name": "AlreadyVoted",
      "type": "error"
    },
    {
      "inputs": [
        {
          "internalType": "address",
          "name": "spender",
          "type": "address"
        },
        {
          "internalType": "uint256",
          "name": "allowance",
          "type": "uint256"
        },
        {
          "internalType": "uint256",
          "name": "needed",
          "type": "uint256"
        }
      ],
      "name": "ERC20InsufficientAllowance",
      "type": "error"
    },
    {
      "inputs": [
        {
          "internalType": "address",
          "name": "sender",
          "type": "address"
        },
        {
          "internalType": "uint256",
          "name": "balance",
          "type": "uint256"
        },
        {
          "internalType": "uint256",
          "name": "needed",
          "type": "uint256"
        }
      ],
      "name": "ERC20InsufficientBalance",
      "type": "error"
    },
    {
      "inputs": [
        {
          "internalType": "address",
          "name": "approver",
          "type": "address"
        }
      ],
      "name": "ERC20InvalidApprover",
      "type": "error"
    },
    {
      "inputs": [
        {
          "internalType": "address",
          "name": "receiver",
          "type": "address"
        }
      ],
      "name": "ERC20InvalidReceiver",
      "type": "error"
    },
    {
      "inputs": [
        {
          "internalType": "address",
          "name": "sender",
          "type": "address"
        }
      ],
      "name": "ERC20InvalidSender",
      "type": "error"
    },
    {
      "inputs": [
        {
          "internalType": "address",
          "name": "spender",
          "type": "address"
        }
      ],
      "name": "ERC20InvalidSpender",
      "type": "error"
    },
    {
      "inputs": [],
      "name": "NoTokensHeld",
      "type": "error"
    },
    {
      "inputs": [
        {
          "internalType": "uint256",
          "name": "quorum",
          "type": "uint256"
        }
      ],
      "name": "QuorumTooHigh",
      "type": "error"
    },
    {
      "inputs": [],
      "name": "TokensClaimed",
      "type": "error"
    },
    {
      "inputs": [],
      "name": "VotingClosed",
      "type": "error"
    },
    {
      "anonymous": false,
      "inputs": [
        {
          "indexed": true,
          "internalType": "address",
          "name": "owner",
          "type": "address"
        },
        {
          "indexed": true,
          "internalType": "address",
          "name": "spender",
          "type": "address"
        },
        {
          "indexed": false,
          "internalType": "uint256",
          "name": "value",
          "type": "uint256"
        }
      ],
      "name": "Approval",
      "type": "event"
    },
    {
      "anonymous": false,
      "inputs": [
        {
          "indexed": true,
          "internalType": "address",
          "name": "from",
          "type": "address"
        },
        {
          "indexed": true,
          "internalType": "address",
          "name": "to",
          "type": "address"
        },
        {
          "indexed": false,
          "internalType": "uint256",
          "name": "value",
          "type": "uint256"
        }
      ],
      "name": "Transfer",
      "type": "event"
    },
    {
      "inputs": [
        {
          "internalType": "address",
          "name": "owner",
          "type": "address"
        },
        {
          "internalType": "address",
          "name": "spender",
          "type": "address"
        }
      ],
      "name": "allowance",
      "outputs": [
        {
          "internalType": "uint256",
          "name": "",
          "type": "uint256"
        }
      ],
      "stateMutability": "view",
      "type": "function"
    },
    {
      "inputs": [
        {
          "internalType": "address",
          "name": "spender",
          "type": "address"
        },
        {
          "internalType": "uint256",
          "name": "value",
          "type": "uint256"
        }
      ],
      "name": "approve",
      "outputs": [
        {
          "internalType": "bool",
          "name": "",
          "type": "bool"
        }
      ],
      "stateMutability": "nonpayable",
      "type": "function"
    },
    {
      "inputs": [
        {
          "internalType": "address",
          "name": "account",
          "type": "address"
        }
      ],
      "name": "balanceOf",
      "outputs": [
        {
          "internalType": "uint256",
          "name": "",
          "type": "uint256"
        }
      ],
      "stateMutability": "view",
      "type": "function"
    },
    {
      "inputs": [],
      "name": "claim",
      "outputs": [],
      "stateMutability": "nonpayable",
      "type": "function"
    },
    {
      "inputs": [
        {
          "internalType": "string",
          "name": "_issueDesc",
          "type": "string"
        },
        {
          "internalType": "uint256",
          "name": "_quorum",
          "type": "uint256"
        }
      ],
      "name": "createIssue",
      "outputs": [
        {
          "internalType": "uint256",
          "name": "",
          "type": "uint256"
        }
      ],
      "stateMutability": "nonpayable",
      "type": "function"
    },
    {
      "inputs": [],
      "name": "decimals",
      "outputs": [
        {
          "internalType": "uint8",
          "name": "",
          "type": "uint8"
        }
      ],
      "stateMutability": "view",
      "type": "function"
    },
    {
      "inputs": [
        {
          "internalType": "uint256",
          "name": "_id",
          "type": "uint256"
        }
      ],
      "name": "getIssue",
      "outputs": [
        {
          "components": [
            {
              "internalType": "address[]",
              "name": "voters",
              "type": "address[]"
            },
            {
              "internalType": "string",
              "name": "issueDesc",
              "type": "string"
            },
            {
              "internalType": "uint256",
              "name": "quorum",
              "type": "uint256"
            },
            {
              "internalType": "uint256",
              "name": "totalVotes",
              "type": "uint256"
            },
            {
              "internalType": "uint256",
              "name": "votesFor",
              "type": "uint256"
            },
            {
              "internalType": "uint256",
              "name": "votesAgainst",
              "type": "uint256"
            },
            {
              "internalType": "uint256",
              "name": "votesAbstain",
              "type": "uint256"
            },
            {
              "internalType": "bool",
              "name": "passed",
              "type": "bool"
            },
            {
              "internalType": "bool",
              "name": "closed",
              "type": "bool"
            }
          ],
          "internalType": "struct WeightedVoting.FormattedIssue",
          "name": "",
          "type": "tuple"
        }
      ],
      "stateMutability": "view",
      "type": "function"
    },
    {
      "inputs": [],
      "name": "name",
      "outputs": [
        {
          "internalType": "string",
          "name": "",
          "type": "string"
        }
      ],
      "stateMutability": "view",
      "type": "function"
    },
    {
      "inputs": [],
      "name": "symbol",
      "outputs": [
        {
          "internalType": "string",
          "name": "",
          "type": "string"
        }
      ],
      "stateMutability": "view",
      "type": "function"
    },
    {
      "inputs": [],
      "name": "totalSupply",
      "outputs": [
        {
          "internalType": "uint256",
          "name": "",
          "type": "uint256"
        }
      ],
      "stateMutability": "view",
      "type": "function"
    },
    {
      "inputs": [
        {
          "internalType": "address",
          "name": "to",
          "type": "address"
        },
        {
          "internalType": "uint256",
          "name": "value",
          "type": "uint256"
        }
      ],
      "name": "transfer",
      "outputs": [
        {
          "internalType": "bool",
          "name": "",
          "type": "bool"
        }
      ],
      "stateMutability": "nonpayable",
      "type": "function"
    },
    {
      "inputs": [
        {
          "internalType": "address",
          "name": "from",
          "type": "address"
        },
        {
          "internalType": "address",
          "name": "to",
          "type": "address"
        },
        {
          "internalType": "uint256",
          "name": "value",
          "type": "uint256"
        }
      ],
      "name": "transferFrom",
      "outputs": [
        {
          "internalType": "bool",
          "name": "",
          "type": "bool"
        }
      ],
      "stateMutability": "nonpayable",
      "type": "function"
    },
    {
      "inputs": [
        {
          "internalType": "uint256",
          "name": "_issueId",
          "type": "uint256"
        },
        {
          "internalType": "enum WeightedVoting.Vote",
          "name": "_vote",
          "type": "uint8"
        }
      ],
      "name": "vote",
      "outputs": [],
      "stateMutability": "nonpayable",
      "type": "function"
    }
  ],
  "bytecode": "0x608060405260006005553480156200001657600080fd5b50604051620014e3380380620014e38339810160408190526200003991620001be565b81816003620000498382620002b7565b506004620000588282620002b7565b505060068054600181018255600091909152604080518082019091526005815264189d5c9b9d60da1b602082015260099091027ff652222313e28459528d920b65115c16c04f3efc82aaedc97be59f3f377c0d3f810192507ff652222313e28459528d920b65115c16c04f3efc82aaedc97be59f3f377c0d410190620000df9082620002b7565b50600801805461ff00191661010017905550620003839050565b634e487b7160e01b600052604160045260246000fd5b600082601f8301126200012157600080fd5b81516001600160401b03808211156200013e576200013e620000f9565b604051601f8301601f19908116603f01168101908282118183101715620001695762000169620000f9565b816040528381526020925086838588010111156200018657600080fd5b600091505b83821015620001aa57858201830151818301840152908201906200018b565b600093810190920192909252949350505050565b60008060408385031215620001d257600080fd5b82516001600160401b0380821115620001ea57600080fd5b620001f8868387016200010f565b935060208501519150808211156200020f57600080fd5b506200021e858286016200010f565b9150509250929050565b600181811c908216806200023d57607f821691505b6020821081036200025e57634e487b7160e01b600052602260045260246000fd5b50919050565b601f821115620002b257600081815260208120601f850160051c810160208610156200028d5750805b601f850160051c820191505b81811015620002ae5782815560010162000299565b5050505b505050565b81516001600160401b03811115620002d357620002d3620000f9565b620002eb81620002e4845462000228565b8462000264565b602080601f8311600181146200032357600084156200030a5750858301515b600019600386901b1c1916600185901b178555620002ae565b600085815260208120601f198616915b82811015620003545788860151825594840194600190910190840162000333565b5085821015620003735787850151600019600388901b60f8161c191681555b5050505050600190811b01905550565b61115080620003936000396000f3fe608060405234801561001057600080fd5b50600436106100df5760003560e01c806370a082311161008c57806395d89b411161006657806395d89b41146101b2578063976b3113146101ba578063a9059cbb146101da578063dd62ed3e146101ed57600080fd5b806370a08231146101635780638615d8551461018c578063943e82161461019f57600080fd5b806323b872dd116100bd57806323b872dd14610137578063313ce5671461014a5780634e71d92d1461015957600080fd5b806306fdde03146100e4578063095ea7b31461010257806318160ddd14610125575b600080fd5b6100ec610226565b6040516100f99190610cea565b60405180910390f35b610115610110366004610d19565b6102b8565b60405190151581526020016100f9565b6002545b6040519081526020016100f9565b610115610145366004610d43565b6102d2565b604051601281526020016100f9565b6101616102f6565b005b610129610171366004610d7f565b6001600160a01b031660009081526020819052604090205490565b61012961019a366004610d9a565b6103bd565b6101616101ad366004610e12565b6104ab565b6100ec610674565b6101cd6101c8366004610e46565b610683565b6040516100f99190610ea3565b6101156101e8366004610d19565b610804565b6101296101fb366004610f3b565b6001600160a01b03918216600090815260016020908152604080832093909416825291909152205490565b60606003805461023590610f6e565b80601f016020809104026020016040519081016040528092919081815260200182805461026190610f6e565b80156102ae5780601f10610283576101008083540402835291602001916102ae565b820191906000526020600020905b81548152906001019060200180831161029157829003601f168201915b5050505050905090565b6000336102c6818585610812565b60019150505b92915050565b6000336102e0858285610824565b6102eb8585856108b6565b506001949350505050565b3360009081526007602052604090205460ff1615610340576040517f0b1327a600000000000000000000000000000000000000000000000000000000815260040160405180910390fd5b620f42406005541061037e576040517fcbe2483100000000000000000000000000000000000000000000000000000000815260040160405180910390fd5b336000818152600760205260409020805460ff191660011790556103a390606461092e565b6064600560008282546103b69190610fa8565b9091555050565b336000908152602081905260408120546000036103ed57604051638439960d60e01b815260040160405180910390fd5b600254821115610431576040517f589a4952000000000000000000000000000000000000000000000000000000008152600481018390526024015b60405180910390fd5b600680546001810182556000919091526009027ff652222313e28459528d920b65115c16c04f3efc82aaedc97be59f3f377c0d3f8101907ff652222313e28459528d920b65115c16c04f3efc82aaedc97be59f3f377c0d410161049585878361102d565b5060030182905550600654600019019392505050565b6000600683815481106104c0576104c06110ee565b906000526020600020906009020190508060080160019054906101000a900460ff1615610519576040517f66b6cb4a00000000000000000000000000000000000000000000000000000000815260040160405180910390fd5b6105238133610968565b1561055a576040517f7c9a1cf900000000000000000000000000000000000000000000000000000000815260040160405180910390fd5b336000908152602081905260408120549081900361058b57604051638439960d60e01b815260040160405180910390fd5b610595823361098d565b5060008360028111156105aa576105aa611104565b036105ce57808260060160008282546105c39190610fa8565b909155506106159050565b60018360028111156105e2576105e2611104565b036105fb57808260050160008282546105c39190610fa8565b8082600701600082825461060f9190610fa8565b90915550505b808260040160008282546106299190610fa8565b9091555050600382015460048301541061066e5760088201805461ff00191661010017905560068201546005830154111561066e5760088201805460ff191660011790555b50505050565b60606004805461023590610f6e565b6106d6604051806101200160405280606081526020016060815260200160008152602001600081526020016000815260200160008152602001600081526020016000151581526020016000151581525090565b6000600683815481106106eb576106eb6110ee565b90600052602060002090600902019050604051806101200160405280610713836000016109a2565b815260200182600201805461072790610f6e565b80601f016020809104026020016040519081016040528092919081815260200182805461075390610f6e565b80156107a05780601f10610775576101008083540402835291602001916107a0565b820191906000526020600020905b81548152906001019060200180831161078357829003601f168201915b505050918352505060038301546020820152600483015460408201526005830154606082015260068301546080820152600783015460a082015260089092015460ff808216151560c085015261010090910416151560e09092019190915292915050565b6000336102c68185856108b6565b61081f83838360016109af565b505050565b6001600160a01b0383811660009081526001602090815260408083209386168352929052205460001981101561066e57818110156108a7576040517ffb8f41b20000000000000000000000000000000000000000000000000000000081526001600160a01b03841660048201526024810182905260448101839052606401610428565b61066e848484840360006109af565b6001600160a01b0383166108f9576040517f96c6fd1e00000000000000000000000000000000000000000000000000000000815260006004820152602401610428565b6001600160a01b0382166109235760405163ec442f0560e01b815260006004820152602401610428565b61081f838383610ab6565b6001600160a01b0382166109585760405163ec442f0560e01b815260006004820152602401610428565b61096460008383610ab6565b5050565b6001600160a01b038116600090815260018301602052604081205415155b9392505050565b6000610986836001600160a01b038416610bf9565b6060600061098683610c48565b6001600160a01b0384166109f2576040517fe602df0500000000000000000000000000000000000000000000000000000000815260006004820152602401610428565b6001600160a01b038316610a35576040517f94280d6200000000000000000000000000000000000000000000000000000000815260006004820152602401610428565b6001600160a01b038085166000908152600160209081526040808320938716835292905220829055801561066e57826001600160a01b0316846001600160a01b03167f8c5be1e5ebec7d5bd14f71427d1e84f3dd0314c0f7b2291e5b200ac8c7c3b92584604051610aa891815260200190565b60405180910390a350505050565b6001600160a01b038316610ae1578060026000828254610ad69190610fa8565b90915550610b6c9050565b6001600160a01b03831660009081526020819052604090205481811015610b4d576040517fe450d38c0000000000000000000000000000000000000000000000000000000081526001600160a01b03851660048201526024810182905260448101839052606401610428565b6001600160a01b03841660009081526020819052604090209082900390555b6001600160a01b038216610b8857600280548290039055610ba7565b6001600160a01b03821660009081526020819052604090208054820190555b816001600160a01b0316836001600160a01b03167fddf252ad1be2c89b69c2b068fc378daa952ba7f163c4a11628f55a4df523b3ef83604051610bec91815260200190565b60405180910390a3505050565b6000818152600183016020526040812054610c40575081546001818101845560008481526020808220909301849055845484825282860190935260409020919091556102cc565b5060006102cc565b606081600001805480602002602001604051908101604052809291908181526020018280548015610c9857602002820191906000526020600020905b815481526020019060010190808311610c84575b50505050509050919050565b6000815180845260005b81811015610cca57602081850181015186830182015201610cae565b506000602082860101526020601f19601f83011685010191505092915050565b6020815260006109866020830184610ca4565b80356001600160a01b0381168114610d1457600080fd5b919050565b60008060408385031215610d2c57600080fd5b610d3583610cfd565b946020939093013593505050565b600080600060608486031215610d5857600080fd5b610d6184610cfd565b9250610d6f60208501610cfd565b9150604084013590509250925092565b600060208284031215610d9157600080fd5b61098682610cfd565b600080600060408486031215610daf57600080fd5b833567ffffffffffffffff80821115610dc757600080fd5b818601915086601f830112610ddb57600080fd5b813581811115610dea57600080fd5b876020828501011115610dfc57600080fd5b6020928301989097509590910135949350505050565b60008060408385031215610e2557600080fd5b82359150602083013560038110610e3b57600080fd5b809150509250929050565b600060208284031215610e5857600080fd5b5035919050565b600081518084526020808501945080840160005b83811015610e985781516001600160a01b031687529582019590820190600101610e73565b509495945050505050565b6020815260008251610120806020850152610ec2610140850183610e5f565b91506020850151601f19858403016040860152610edf8382610ca4565b9250506040850151606085015260608501516080850152608085015160a085015260a085015160c085015260c085015160e085015260e0850151610100610f298187018315159052565b90950151151593019290925250919050565b60008060408385031215610f4e57600080fd5b610f5783610cfd565b9150610f6560208401610cfd565b90509250929050565b600181811c90821680610f8257607f821691505b602082108103610fa257634e487b7160e01b600052602260045260246000fd5b50919050565b808201808211156102cc57634e487b7160e01b600052601160045260246000fd5b634e487b7160e01b600052604160045260246000fd5b601f82111561081f57600081815260208120601f850160051c810160208610156110065750805b601f850160051c820191505b8181101561102557828155600101611012565b505050505050565b67ffffffffffffffff83111561104557611045610fc9565b611059836110538354610f6e565b83610fdf565b6000601f84116001811461108d57600085156110755750838201355b600019600387901b1c1916600186901b1783556110e7565b600083815260209020601f19861690835b828110156110be578685013582556020948501946001909201910161109e565b50868210156110db5760001960f88860031b161c19848701351681555b505060018560011b0183555b5050505050565b634e487b7160e01b600052603260045260246000fd5b634e487b7160e01b600052602160045260246000fdfea264697066735822122020bdf37af3e511ddd208fff3db13613dd42705ace8ac2da89c487edbe5ec636e64736f6c63430008140033",
  "linkReferences": {},
  "deployedLinkReferences": {}
}