{
  "_format": "hh-sol-artifact-1",
  "contractName": "UnburnableToken",
  "sourceName": "contracts/11_UnburnableToken.sol",
  "abi": [
    {
      "inputs": [],
      "stateMutability": "nonpayable",
      "type": "constructor"
    },
    {
      "inputs": [],
      "name": "AllTokensClaimed",
      "type": "error"
    },
    {
      "inputs": [],
      "name": "TokensClaimed",
      "type": "error"
    },
    {
      "inputs": [
        {
          "internalType": "address",
          "name": "",
          "type": "address"
        }
      ],
      "name": "UnsafeTransfer",
      "type": "error"
    },
    {
      "inputs": [
        {
          "internalType": "uint256",
          "name": "_totalSupply",
          "type": "uint256"
        }
      ],
      "name": "_setTotalSupply",
      "outputs": [],
      "stateMutability": "nonpayable",
      "type": "function"
    },
    {
      "inputs": [
        {
          "internalType": "address",
          "name": "",
          "type": "address"
        }
      ],
      "name": "balances",
      "outputs": [
        {
          "internalType": "uint256",
          "name": "",
          "type": "uint256"
        }
      ],
      "stateMutability": "view",
      "type": "function"
    },
    {
      "inputs": [],
      "name": "claim",
      "outputs": [],
      "stateMutability": "nonpayable",
      "type": "function"
    },
    {
      "inputs": [
        {
          "internalType": "address",
          "name": "_to",
          "type": "address"
        },
        {
          "internalType": "uint256",
          "name": "amount",
          "type": "uint256"
        }
      ],
      "name": "safeTransfer",
      "outputs": [],
      "stateMutability": "nonpayable",
      "type": "function"
    },
    {
      "inputs": [],
      "name": "totalClaimed",
      "outputs": [
        {
          "internalType": "uint256",
          "name": "",
          "type": "uint256"
        }
      ],
      "stateMutability": "view",
      "type": "function"
    },
    {
      "inputs": [],
      "name": "totalSupply",
      "outputs": [
        {
          "internalType": "uint256",
          "name": "",
          "type": "uint256"
        }
      ],
      "stateMutability": "view",
      "type": "function"
    }
  ],
  "bytecode": "0x608060405234801561001057600080fd5b506305f5e1006000556103bb806100286000396000f3fe608060405234801561001057600080fd5b50600436106100725760003560e01c8063423f6cef11610050578063423f6cef146100c75780634e71d92d146100da578063d54ad2a1146100e257600080fd5b8063017838eb1461007757806318160ddd1461008c57806327e235e3146100a7575b600080fd5b61008a6100853660046102a9565b600055565b005b61009560005481565b60405190815260200160405180910390f35b6100956100b53660046102de565b60026020526000908152604090205481565b61008a6100d5366004610300565b6100eb565b61008a6101bd565b61009560015481565b6001600160a01b038216158061010957506001600160a01b03821631155b8061012257503360009081526002602052604090205481115b15610168576040517f6a86d24c0000000000000000000000000000000000000000000000000000000081526001600160a01b038316600482015260240160405180910390fd5b3360009081526002602052604081208054839290610187908490610359565b90915550506001600160a01b038216600090815260026020526040812080548392906101b4908490610372565b90915550505050565b3360009081526003602052604090205460ff1615610207576040517f0b1327a600000000000000000000000000000000000000000000000000000000815260040160405180910390fd5b600054600154610219906103e8610372565b1115610251576040517fcbe2483100000000000000000000000000000000000000000000000000000000815260040160405180910390fd5b336000908152600360209081526040808320805460ff191660011790556002909152812080546103e89290610287908490610372565b925050819055506103e8600160008282546102a29190610372565b9091555050565b6000602082840312156102bb57600080fd5b5035919050565b80356001600160a01b03811681146102d957600080fd5b919050565b6000602082840312156102f057600080fd5b6102f9826102c2565b9392505050565b6000806040838503121561031357600080fd5b61031c836102c2565b946020939093013593505050565b7f4e487b7100000000000000000000000000000000000000000000000000000000600052601160045260246000fd5b8181038181111561036c5761036c61032a565b92915050565b8082018082111561036c5761036c61032a56fea26469706673582212207f099c327d3202c18b54a117e27ee18be538133189cb0fe753c28a7ea83ad83d64736f6c63430008140033",
  "linkReferences": {},
  "deployedLinkReferences": {}
}